{
  "_format": "hh-sol-artifact-1",
  "contractName": "NftMarketPlace",
  "sourceName": "contracts/NftMarketPlace.sol",
  "abi": [
    {
      "inputs": [],
      "stateMutability": "nonpayable",
      "type": "constructor"
    },
    {
      "anonymous": false,
      "inputs": [
        {
          "indexed": true,
          "internalType": "address",
          "name": "owner",
          "type": "address"
        },
        {
          "indexed": true,
          "internalType": "address",
          "name": "approved",
          "type": "address"
        },
        {
          "indexed": true,
          "internalType": "uint256",
          "name": "tokenId",
          "type": "uint256"
        }
      ],
      "name": "Approval",
      "type": "event"
    },
    {
      "anonymous": false,
      "inputs": [
        {
          "indexed": true,
          "internalType": "address",
          "name": "owner",
          "type": "address"
        },
        {
          "indexed": true,
          "internalType": "address",
          "name": "operator",
          "type": "address"
        },
        {
          "indexed": false,
          "internalType": "bool",
          "name": "approved",
          "type": "bool"
        }
      ],
      "name": "ApprovalForAll",
      "type": "event"
    },
    {
      "anonymous": false,
      "inputs": [
        {
          "indexed": true,
          "internalType": "uint256",
          "name": "tokenId",
          "type": "uint256"
        },
        {
          "indexed": false,
          "internalType": "uint256",
          "name": "price",
          "type": "uint256"
        },
        {
          "indexed": false,
          "internalType": "address",
          "name": "owner",
          "type": "address"
        },
        {
          "indexed": false,
          "internalType": "address",
          "name": "seller",
          "type": "address"
        },
        {
          "indexed": false,
          "internalType": "bool",
          "name": "sold",
          "type": "bool"
        }
      ],
      "name": "MarketItemCreated",
      "type": "event"
    },
    {
      "anonymous": false,
      "inputs": [
        {
          "indexed": true,
          "internalType": "address",
          "name": "from",
          "type": "address"
        },
        {
          "indexed": true,
          "internalType": "address",
          "name": "to",
          "type": "address"
        },
        {
          "indexed": true,
          "internalType": "uint256",
          "name": "tokenId",
          "type": "uint256"
        }
      ],
      "name": "Transfer",
      "type": "event"
    },
    {
      "inputs": [
        {
          "internalType": "address",
          "name": "to",
          "type": "address"
        },
        {
          "internalType": "uint256",
          "name": "tokenId",
          "type": "uint256"
        }
      ],
      "name": "approve",
      "outputs": [],
      "stateMutability": "nonpayable",
      "type": "function"
    },
    {
      "inputs": [
        {
          "internalType": "address",
          "name": "owner",
          "type": "address"
        }
      ],
      "name": "balanceOf",
      "outputs": [
        {
          "internalType": "uint256",
          "name": "",
          "type": "uint256"
        }
      ],
      "stateMutability": "view",
      "type": "function"
    },
    {
      "inputs": [
        {
          "internalType": "uint256",
          "name": "_id",
          "type": "uint256"
        },
        {
          "internalType": "uint256",
          "name": "_price",
          "type": "uint256"
        }
      ],
      "name": "createMarketItem",
      "outputs": [],
      "stateMutability": "payable",
      "type": "function"
    },
    {
      "inputs": [
        {
          "internalType": "uint256",
          "name": "_tokenId",
          "type": "uint256"
        }
      ],
      "name": "createMarketSale",
      "outputs": [],
      "stateMutability": "payable",
      "type": "function"
    },
    {
      "inputs": [
        {
          "internalType": "string",
          "name": "_tokenURI",
          "type": "string"
        },
        {
          "internalType": "uint256",
          "name": "_price",
          "type": "uint256"
        }
      ],
      "name": "createNft",
      "outputs": [
        {
          "internalType": "uint256",
          "name": "",
          "type": "uint256"
        }
      ],
      "stateMutability": "payable",
      "type": "function"
    },
    {
      "inputs": [],
      "name": "fetchItemsListed",
      "outputs": [
        {
          "components": [
            {
              "internalType": "uint256",
              "name": "tokenId",
              "type": "uint256"
            },
            {
              "internalType": "uint256",
              "name": "price",
              "type": "uint256"
            },
            {
              "internalType": "address payable",
              "name": "owner",
              "type": "address"
            },
            {
              "internalType": "address payable",
              "name": "seller",
              "type": "address"
            },
            {
              "internalType": "bool",
              "name": "sold",
              "type": "bool"
            }
          ],
          "internalType": "struct NftMarketPlace.MarketItem[]",
          "name": "",
          "type": "tuple[]"
        }
      ],
      "stateMutability": "view",
      "type": "function"
    },
    {
      "inputs": [],
      "name": "fetchMarketItems",
      "outputs": [
        {
          "components": [
            {
              "internalType": "uint256",
              "name": "tokenId",
              "type": "uint256"
            },
            {
              "internalType": "uint256",
              "name": "price",
              "type": "uint256"
            },
            {
              "internalType": "address payable",
              "name": "owner",
              "type": "address"
            },
            {
              "internalType": "address payable",
              "name": "seller",
              "type": "address"
            },
            {
              "internalType": "bool",
              "name": "sold",
              "type": "bool"
            }
          ],
          "internalType": "struct NftMarketPlace.MarketItem[]",
          "name": "",
          "type": "tuple[]"
        }
      ],
      "stateMutability": "view",
      "type": "function"
    },
    {
      "inputs": [],
      "name": "fetchMyNFTs",
      "outputs": [
        {
          "components": [
            {
              "internalType": "uint256",
              "name": "tokenId",
              "type": "uint256"
            },
            {
              "internalType": "uint256",
              "name": "price",
              "type": "uint256"
            },
            {
              "internalType": "address payable",
              "name": "owner",
              "type": "address"
            },
            {
              "internalType": "address payable",
              "name": "seller",
              "type": "address"
            },
            {
              "internalType": "bool",
              "name": "sold",
              "type": "bool"
            }
          ],
          "internalType": "struct NftMarketPlace.MarketItem[]",
          "name": "",
          "type": "tuple[]"
        }
      ],
      "stateMutability": "view",
      "type": "function"
    },
    {
      "inputs": [
        {
          "internalType": "uint256",
          "name": "tokenId",
          "type": "uint256"
        }
      ],
      "name": "getApproved",
      "outputs": [
        {
          "internalType": "address",
          "name": "",
          "type": "address"
        }
      ],
      "stateMutability": "view",
      "type": "function"
    },
    {
      "inputs": [
        {
          "internalType": "uint256",
          "name": "",
          "type": "uint256"
        }
      ],
      "name": "idToMarketItem",
      "outputs": [
        {
          "internalType": "uint256",
          "name": "tokenId",
          "type": "uint256"
        },
        {
          "internalType": "uint256",
          "name": "price",
          "type": "uint256"
        },
        {
          "internalType": "address payable",
          "name": "owner",
          "type": "address"
        },
        {
          "internalType": "address payable",
          "name": "seller",
          "type": "address"
        },
        {
          "internalType": "bool",
          "name": "sold",
          "type": "bool"
        }
      ],
      "stateMutability": "view",
      "type": "function"
    },
    {
      "inputs": [
        {
          "internalType": "address",
          "name": "owner",
          "type": "address"
        },
        {
          "internalType": "address",
          "name": "operator",
          "type": "address"
        }
      ],
      "name": "isApprovedForAll",
      "outputs": [
        {
          "internalType": "bool",
          "name": "",
          "type": "bool"
        }
      ],
      "stateMutability": "view",
      "type": "function"
    },
    {
      "inputs": [],
      "name": "listingPrice",
      "outputs": [
        {
          "internalType": "uint256",
          "name": "",
          "type": "uint256"
        }
      ],
      "stateMutability": "view",
      "type": "function"
    },
    {
      "inputs": [],
      "name": "name",
      "outputs": [
        {
          "internalType": "string",
          "name": "",
          "type": "string"
        }
      ],
      "stateMutability": "view",
      "type": "function"
    },
    {
      "inputs": [],
      "name": "owner",
      "outputs": [
        {
          "internalType": "address payable",
          "name": "",
          "type": "address"
        }
      ],
      "stateMutability": "view",
      "type": "function"
    },
    {
      "inputs": [
        {
          "internalType": "uint256",
          "name": "tokenId",
          "type": "uint256"
        }
      ],
      "name": "ownerOf",
      "outputs": [
        {
          "internalType": "address",
          "name": "",
          "type": "address"
        }
      ],
      "stateMutability": "view",
      "type": "function"
    },
    {
      "inputs": [
        {
          "internalType": "uint256",
          "name": "_tokenId",
          "type": "uint256"
        },
        {
          "internalType": "uint256",
          "name": "_price",
          "type": "uint256"
        }
      ],
      "name": "resellToken",
      "outputs": [],
      "stateMutability": "payable",
      "type": "function"
    },
    {
      "inputs": [
        {
          "internalType": "address",
          "name": "from",
          "type": "address"
        },
        {
          "internalType": "address",
          "name": "to",
          "type": "address"
        },
        {
          "internalType": "uint256",
          "name": "tokenId",
          "type": "uint256"
        }
      ],
      "name": "safeTransferFrom",
      "outputs": [],
      "stateMutability": "nonpayable",
      "type": "function"
    },
    {
      "inputs": [
        {
          "internalType": "address",
          "name": "from",
          "type": "address"
        },
        {
          "internalType": "address",
          "name": "to",
          "type": "address"
        },
        {
          "internalType": "uint256",
          "name": "tokenId",
          "type": "uint256"
        },
        {
          "internalType": "bytes",
          "name": "data",
          "type": "bytes"
        }
      ],
      "name": "safeTransferFrom",
      "outputs": [],
      "stateMutability": "nonpayable",
      "type": "function"
    },
    {
      "inputs": [
        {
          "internalType": "address",
          "name": "operator",
          "type": "address"
        },
        {
          "internalType": "bool",
          "name": "approved",
          "type": "bool"
        }
      ],
      "name": "setApprovalForAll",
      "outputs": [],
      "stateMutability": "nonpayable",
      "type": "function"
    },
    {
      "inputs": [
        {
          "internalType": "bytes4",
          "name": "interfaceId",
          "type": "bytes4"
        }
      ],
      "name": "supportsInterface",
      "outputs": [
        {
          "internalType": "bool",
          "name": "",
          "type": "bool"
        }
      ],
      "stateMutability": "view",
      "type": "function"
    },
    {
      "inputs": [],
      "name": "symbol",
      "outputs": [
        {
          "internalType": "string",
          "name": "",
          "type": "string"
        }
      ],
      "stateMutability": "view",
      "type": "function"
    },
    {
      "inputs": [
        {
          "internalType": "uint256",
          "name": "tokenId",
          "type": "uint256"
        }
      ],
      "name": "tokenURI",
      "outputs": [
        {
          "internalType": "string",
          "name": "",
          "type": "string"
        }
      ],
      "stateMutability": "view",
      "type": "function"
    },
    {
      "inputs": [
        {
          "internalType": "address",
          "name": "from",
          "type": "address"
        },
        {
          "internalType": "address",
          "name": "to",
          "type": "address"
        },
        {
          "internalType": "uint256",
          "name": "tokenId",
          "type": "uint256"
        }
      ],
      "name": "transferFrom",
      "outputs": [],
      "stateMutability": "nonpayable",
      "type": "function"
    },
    {
      "inputs": [
        {
          "internalType": "uint256",
          "name": "_price",
          "type": "uint256"
        }
      ],
      "name": "updateListNftPrice",
      "outputs": [],
      "stateMutability": "nonpayable",
      "type": "function"
    }
  ],
  "bytecode": "0x60806040526608e1bc9bf04000600a553480156200001c57600080fd5b506040518060400160405280600a81526020017f4d79204f776e204e4654000000000000000000000000000000000000000000008152506040518060400160405280600681526020017f4d595f4e4654000000000000000000000000000000000000000000000000000081525081600090816200009a919062000370565b508060019081620000ac919062000370565b50505033600960006101000a81548173ffffffffffffffffffffffffffffffffffffffff021916908373ffffffffffffffffffffffffffffffffffffffff16021790555062000457565b600081519050919050565b7f4e487b7100000000000000000000000000000000000000000000000000000000600052604160045260246000fd5b7f4e487b7100000000000000000000000000000000000000000000000000000000600052602260045260246000fd5b600060028204905060018216806200017857607f821691505b6020821081036200018e576200018d62000130565b5b50919050565b60008190508160005260206000209050919050565b60006020601f8301049050919050565b600082821b905092915050565b600060088302620001f87fffffffffffffffffffffffffffffffffffffffffffffffffffffffffffffffff82620001b9565b620002048683620001b9565b95508019841693508086168417925050509392505050565b6000819050919050565b6000819050919050565b6000620002516200024b62000245846200021c565b62000226565b6200021c565b9050919050565b6000819050919050565b6200026d8362000230565b620002856200027c8262000258565b848454620001c6565b825550505050565b600090565b6200029c6200028d565b620002a981848462000262565b505050565b5b81811015620002d157620002c560008262000292565b600181019050620002af565b5050565b601f8211156200032057620002ea8162000194565b620002f584620001a9565b8101602085101562000305578190505b6200031d6200031485620001a9565b830182620002ae565b50505b505050565b600082821c905092915050565b6000620003456000198460080262000325565b1980831691505092915050565b600062000360838362000332565b9150826002028217905092915050565b6200037b82620000f6565b67ffffffffffffffff81111562000397576200039662000101565b5b620003a382546200015f565b620003b0828285620002d5565b600060209050601f831160018114620003e85760008415620003d3578287015190505b620003df858262000352565b8655506200044f565b601f198416620003f88662000194565b60005b828110156200042257848901518255600182019150602085019450602081019050620003fb565b868310156200044257848901516200043e601f89168262000332565b8355505b6001600288020188555050505b505050505050565b6144e080620004676000396000f3fe60806040526004361061014b5760003560e01c806370a08231116100b6578063c78f19f91161006f578063c78f19f91461047b578063c87b56dd146104a6578063e219fc75146104e3578063e61a70c0146104ff578063e985e9c514610540578063f3edac4d1461057d5761014b565b806370a082311461037a5780638da5cb5b146103b757806395d89b41146103e2578063a22cb4651461040d578063b88d4fde14610436578063be9af5361461045f5761014b565b806323b872dd1161010857806323b872dd14610274578063361c19951461029d5780633e73720c146102b957806342842e0e146102e957806345f8fa80146103125780636352211e1461033d5761014b565b806301ffc9a71461015057806306fdde031461018d578063081812fc146101b8578063095ea7b3146101f55780630f08efe01461021e578063202e374014610249575b600080fd5b34801561015c57600080fd5b5061017760048036038101906101729190612d73565b6105a6565b6040516101849190612dbb565b60405180910390f35b34801561019957600080fd5b506101a2610688565b6040516101af9190612e66565b60405180910390f35b3480156101c457600080fd5b506101df60048036038101906101da9190612ebe565b61071a565b6040516101ec9190612f2c565b60405180910390f35b34801561020157600080fd5b5061021c60048036038101906102179190612f73565b610760565b005b34801561022a57600080fd5b50610233610877565b6040516102409190613109565b60405180910390f35b34801561025557600080fd5b5061025e610adf565b60405161026b9190613109565b60405180910390f35b34801561028057600080fd5b5061029b6004803603810190610296919061312b565b610dcb565b005b6102b760048036038101906102b2919061317e565b610e2b565b005b6102d360048036038101906102ce91906132f3565b61102f565b6040516102e0919061335e565b60405180910390f35b3480156102f557600080fd5b50610310600480360381019061030b919061312b565b611071565b005b34801561031e57600080fd5b50610327611091565b6040516103349190613109565b60405180910390f35b34801561034957600080fd5b50610364600480360381019061035f9190612ebe565b61137d565b6040516103719190612f2c565b60405180910390f35b34801561038657600080fd5b506103a1600480360381019061039c9190613379565b611403565b6040516103ae919061335e565b60405180910390f35b3480156103c357600080fd5b506103cc6114ba565b6040516103d991906133b5565b60405180910390f35b3480156103ee57600080fd5b506103f76114e0565b6040516104049190612e66565b60405180910390f35b34801561041957600080fd5b50610434600480360381019061042f91906133fc565b611572565b005b34801561044257600080fd5b5061045d600480360381019061045891906134dd565b611588565b005b61047960048036038101906104749190612ebe565b6115ea565b005b34801561048757600080fd5b50610490611822565b60405161049d919061335e565b60405180910390f35b3480156104b257600080fd5b506104cd60048036038101906104c89190612ebe565b611828565b6040516104da9190612e66565b60405180910390f35b6104fd60048036038101906104f8919061317e565b61193a565b005b34801561050b57600080fd5b5061052660048036038101906105219190612ebe565b611b2f565b604051610537959493929190613560565b60405180910390f35b34801561054c57600080fd5b50610567600480360381019061056291906135b3565b611bb2565b6040516105749190612dbb565b60405180910390f35b34801561058957600080fd5b506105a4600480360381019061059f9190612ebe565b611c46565b005b60007f80ac58cd000000000000000000000000000000000000000000000000000000007bffffffffffffffffffffffffffffffffffffffffffffffffffffffff1916827bffffffffffffffffffffffffffffffffffffffffffffffffffffffff1916148061067157507f5b5e139f000000000000000000000000000000000000000000000000000000007bffffffffffffffffffffffffffffffffffffffffffffffffffffffff1916827bffffffffffffffffffffffffffffffffffffffffffffffffffffffff1916145b80610681575061068082611ce0565b5b9050919050565b60606000805461069790613622565b80601f01602080910402602001604051908101604052809291908181526020018280546106c390613622565b80156107105780601f106106e557610100808354040283529160200191610710565b820191906000526020600020905b8154815290600101906020018083116106f357829003601f168201915b5050505050905090565b600061072582611d4a565b6004600083815260200190815260200160002060009054906101000a900473ffffffffffffffffffffffffffffffffffffffff169050919050565b600061076b8261137d565b90508073ffffffffffffffffffffffffffffffffffffffff168373ffffffffffffffffffffffffffffffffffffffff16036107db576040517f08c379a00000000000000000000000000000000000000000000000000000000081526004016107d2906136c5565b60405180910390fd5b8073ffffffffffffffffffffffffffffffffffffffff166107fa611d95565b73ffffffffffffffffffffffffffffffffffffffff161480610829575061082881610823611d95565b611bb2565b5b610868576040517f08c379a000000000000000000000000000000000000000000000000000000000815260040161085f90613757565b60405180910390fd5b6108728383611d9d565b505050565b606060006108856007611e56565b905060006108936008611e56565b61089d6007611e56565b6108a791906137a6565b90506000808267ffffffffffffffff8111156108c6576108c56131c8565b5b6040519080825280602002602001820160405280156108ff57816020015b6108ec612caa565b8152602001906001900390816108e45790505b50905060005b84811015610ad4573073ffffffffffffffffffffffffffffffffffffffff16600b600060018461093591906137da565b815260200190815260200160002060020160009054906101000a900473ffffffffffffffffffffffffffffffffffffffff1673ffffffffffffffffffffffffffffffffffffffff1603610ac157600060018261099191906137da565b90506000600b60008381526020019081526020016000209050806040518060a001604052908160008201548152602001600182015481526020016002820160009054906101000a900473ffffffffffffffffffffffffffffffffffffffff1673ffffffffffffffffffffffffffffffffffffffff1673ffffffffffffffffffffffffffffffffffffffff1681526020016003820160009054906101000a900473ffffffffffffffffffffffffffffffffffffffff1673ffffffffffffffffffffffffffffffffffffffff1673ffffffffffffffffffffffffffffffffffffffff1681526020016003820160149054906101000a900460ff161515151581525050848681518110610aa457610aa361380e565b5b6020026020010181905250600185610abc91906137da565b945050505b8080610acc9061383d565b915050610905565b508094505050505090565b60606000610aed6007611e56565b905060008060005b83811015610b95573373ffffffffffffffffffffffffffffffffffffffff16600b6000600184610b2591906137da565b815260200190815260200160002060020160009054906101000a900473ffffffffffffffffffffffffffffffffffffffff1673ffffffffffffffffffffffffffffffffffffffff1603610b8257600183610b7f91906137da565b92505b8080610b8d9061383d565b915050610af5565b5060008267ffffffffffffffff811115610bb257610bb16131c8565b5b604051908082528060200260200182016040528015610beb57816020015b610bd8612caa565b815260200190600190039081610bd05790505b50905060005b84811015610dc0573373ffffffffffffffffffffffffffffffffffffffff16600b6000600184610c2191906137da565b815260200190815260200160002060020160009054906101000a900473ffffffffffffffffffffffffffffffffffffffff1673ffffffffffffffffffffffffffffffffffffffff1603610dad576000600182610c7d91906137da565b90506000600b60008381526020019081526020016000209050806040518060a001604052908160008201548152602001600182015481526020016002820160009054906101000a900473ffffffffffffffffffffffffffffffffffffffff1673ffffffffffffffffffffffffffffffffffffffff1673ffffffffffffffffffffffffffffffffffffffff1681526020016003820160009054906101000a900473ffffffffffffffffffffffffffffffffffffffff1673ffffffffffffffffffffffffffffffffffffffff1673ffffffffffffffffffffffffffffffffffffffff1681526020016003820160149054906101000a900460ff161515151581525050848681518110610d9057610d8f61380e565b5b6020026020010181905250600185610da891906137da565b945050505b8080610db89061383d565b915050610bf1565b508094505050505090565b610ddc610dd6611d95565b82611e64565b610e1b576040517f08c379a0000000000000000000000000000000000000000000000000000000008152600401610e12906138f7565b60405180910390fd5b610e26838383611ef9565b505050565b60008111610e6e576040517f08c379a0000000000000000000000000000000000000000000000000000000008152600401610e6590613963565b60405180910390fd5b600a54341015610eb3576040517f08c379a0000000000000000000000000000000000000000000000000000000008152600401610eaa906139cf565b60405180910390fd5b6040518060a001604052808381526020018281526020013373ffffffffffffffffffffffffffffffffffffffff1681526020013073ffffffffffffffffffffffffffffffffffffffff16815260200160001515815250600b6000848152602001908152602001600020600082015181600001556020820151816001015560408201518160020160006101000a81548173ffffffffffffffffffffffffffffffffffffffff021916908373ffffffffffffffffffffffffffffffffffffffff16021790555060608201518160030160006101000a81548173ffffffffffffffffffffffffffffffffffffffff021916908373ffffffffffffffffffffffffffffffffffffffff16021790555060808201518160030160146101000a81548160ff021916908315150217905550905050610fec333084611ef9565b817f91f5e19f3aa7a808da889a68fd2393ad4722f0c06a7d02eefa9f304b613ce9c8823330600060405161102394939291906139ef565b60405180910390a25050565b600061103b60076121f2565b60006110476007611e56565b90506110533382612208565b61105d8185612425565b6110678184610e2b565b8091505092915050565b61108c83838360405180602001604052806000815250611588565b505050565b6060600061109f6007611e56565b905060008060005b83811015611147573373ffffffffffffffffffffffffffffffffffffffff16600b60006001846110d791906137da565b815260200190815260200160002060030160009054906101000a900473ffffffffffffffffffffffffffffffffffffffff1673ffffffffffffffffffffffffffffffffffffffff16036111345760018361113191906137da565b92505b808061113f9061383d565b9150506110a7565b5060008267ffffffffffffffff811115611164576111636131c8565b5b60405190808252806020026020018201604052801561119d57816020015b61118a612caa565b8152602001906001900390816111825790505b50905060005b84811015611372573373ffffffffffffffffffffffffffffffffffffffff16600b60006001846111d391906137da565b815260200190815260200160002060030160009054906101000a900473ffffffffffffffffffffffffffffffffffffffff1673ffffffffffffffffffffffffffffffffffffffff160361135f57600060018261122f91906137da565b90506000600b60008381526020019081526020016000209050806040518060a001604052908160008201548152602001600182015481526020016002820160009054906101000a900473ffffffffffffffffffffffffffffffffffffffff1673ffffffffffffffffffffffffffffffffffffffff1673ffffffffffffffffffffffffffffffffffffffff1681526020016003820160009054906101000a900473ffffffffffffffffffffffffffffffffffffffff1673ffffffffffffffffffffffffffffffffffffffff1673ffffffffffffffffffffffffffffffffffffffff1681526020016003820160149054906101000a900460ff1615151515815250508486815181106113425761134161380e565b5b602002602001018190525060018561135a91906137da565b945050505b808061136a9061383d565b9150506111a3565b508094505050505090565b60008061138983612492565b9050600073ffffffffffffffffffffffffffffffffffffffff168173ffffffffffffffffffffffffffffffffffffffff16036113fa576040517f08c379a00000000000000000000000000000000000000000000000000000000081526004016113f190613a80565b60405180910390fd5b80915050919050565b60008073ffffffffffffffffffffffffffffffffffffffff168273ffffffffffffffffffffffffffffffffffffffff1603611473576040517f08c379a000000000000000000000000000000000000000000000000000000000815260040161146a90613b12565b60405180910390fd5b600360008373ffffffffffffffffffffffffffffffffffffffff1673ffffffffffffffffffffffffffffffffffffffff168152602001908152602001600020549050919050565b600960009054906101000a900473ffffffffffffffffffffffffffffffffffffffff1681565b6060600180546114ef90613622565b80601f016020809104026020016040519081016040528092919081815260200182805461151b90613622565b80156115685780601f1061153d57610100808354040283529160200191611568565b820191906000526020600020905b81548152906001019060200180831161154b57829003601f168201915b5050505050905090565b61158461157d611d95565b83836124cf565b5050565b611599611593611d95565b83611e64565b6115d8576040517f08c379a00000000000000000000000000000000000000000000000000000000081526004016115cf906138f7565b60405180910390fd5b6115e48484848461263b565b50505050565b6000600b6000838152602001908152602001600020600101549050803414611647576040517f08c379a000000000000000000000000000000000000000000000000000000000815260040161163e90613ba4565b60405180910390fd5b33600b600084815260200190815260200160002060020160006101000a81548173ffffffffffffffffffffffffffffffffffffffff021916908373ffffffffffffffffffffffffffffffffffffffff1602179055506001600b600084815260200190815260200160002060030160146101000a81548160ff0219169083151502179055506000600b600084815260200190815260200160002060030160006101000a81548173ffffffffffffffffffffffffffffffffffffffff021916908373ffffffffffffffffffffffffffffffffffffffff160217905550600960009054906101000a900473ffffffffffffffffffffffffffffffffffffffff1673ffffffffffffffffffffffffffffffffffffffff166108fc600a549081150290604051600060405180830381858888f1935050505015801561178b573d6000803e3d6000fd5b50600b600083815260200190815260200160002060030160009054906101000a900473ffffffffffffffffffffffffffffffffffffffff1673ffffffffffffffffffffffffffffffffffffffff166108fc349081150290604051600060405180830381858888f19350505050158015611808573d6000803e3d6000fd5b5061181360086121f2565b61181e303384611ef9565b5050565b600a5481565b606061183382611d4a565b600060066000848152602001908152602001600020805461185390613622565b80601f016020809104026020016040519081016040528092919081815260200182805461187f90613622565b80156118cc5780601f106118a1576101008083540402835291602001916118cc565b820191906000526020600020905b8154815290600101906020018083116118af57829003601f168201915b5050505050905060006118dd612697565b905060008151036118f2578192505050611935565b60008251111561192757808260405160200161190f929190613c00565b60405160208183030381529060405292505050611935565b611930846126ae565b925050505b919050565b3373ffffffffffffffffffffffffffffffffffffffff16600b600084815260200190815260200160002060020160009054906101000a900473ffffffffffffffffffffffffffffffffffffffff1673ffffffffffffffffffffffffffffffffffffffff16146119de576040517f08c379a00000000000000000000000000000000000000000000000000000000081526004016119d590613c96565b60405180910390fd5b600a543414611a22576040517f08c379a0000000000000000000000000000000000000000000000000000000008152600401611a19906139cf565b60405180910390fd5b6000600b600084815260200190815260200160002060030160146101000a81548160ff02191690831515021790555080600b60008481526020019081526020016000206001018190555033600b600084815260200190815260200160002060030160006101000a81548173ffffffffffffffffffffffffffffffffffffffff021916908373ffffffffffffffffffffffffffffffffffffffff16021790555030600b600084815260200190815260200160002060020160006101000a81548173ffffffffffffffffffffffffffffffffffffffff021916908373ffffffffffffffffffffffffffffffffffffffff160217905550611b206008612716565b611b2b333084611ef9565b5050565b600b6020528060005260406000206000915090508060000154908060010154908060020160009054906101000a900473ffffffffffffffffffffffffffffffffffffffff16908060030160009054906101000a900473ffffffffffffffffffffffffffffffffffffffff16908060030160149054906101000a900460ff16905085565b6000600560008473ffffffffffffffffffffffffffffffffffffffff1673ffffffffffffffffffffffffffffffffffffffff16815260200190815260200160002060008373ffffffffffffffffffffffffffffffffffffffff1673ffffffffffffffffffffffffffffffffffffffff16815260200190815260200160002060009054906101000a900460ff16905092915050565b600960009054906101000a900473ffffffffffffffffffffffffffffffffffffffff1673ffffffffffffffffffffffffffffffffffffffff163373ffffffffffffffffffffffffffffffffffffffff1614611cd6576040517f08c379a0000000000000000000000000000000000000000000000000000000008152600401611ccd90613d02565b60405180910390fd5b80600a8190555050565b60007f01ffc9a7000000000000000000000000000000000000000000000000000000007bffffffffffffffffffffffffffffffffffffffffffffffffffffffff1916827bffffffffffffffffffffffffffffffffffffffffffffffffffffffff1916149050919050565b611d5381612772565b611d92576040517f08c379a0000000000000000000000000000000000000000000000000000000008152600401611d8990613a80565b60405180910390fd5b50565b600033905090565b816004600083815260200190815260200160002060006101000a81548173ffffffffffffffffffffffffffffffffffffffff021916908373ffffffffffffffffffffffffffffffffffffffff160217905550808273ffffffffffffffffffffffffffffffffffffffff16611e108361137d565b73ffffffffffffffffffffffffffffffffffffffff167f8c5be1e5ebec7d5bd14f71427d1e84f3dd0314c0f7b2291e5b200ac8c7c3b92560405160405180910390a45050565b600081600001549050919050565b600080611e708361137d565b90508073ffffffffffffffffffffffffffffffffffffffff168473ffffffffffffffffffffffffffffffffffffffff161480611eb25750611eb18185611bb2565b5b80611ef057508373ffffffffffffffffffffffffffffffffffffffff16611ed88461071a565b73ffffffffffffffffffffffffffffffffffffffff16145b91505092915050565b8273ffffffffffffffffffffffffffffffffffffffff16611f198261137d565b73ffffffffffffffffffffffffffffffffffffffff1614611f6f576040517f08c379a0000000000000000000000000000000000000000000000000000000008152600401611f6690613d94565b60405180910390fd5b600073ffffffffffffffffffffffffffffffffffffffff168273ffffffffffffffffffffffffffffffffffffffff1603611fde576040517f08c379a0000000000000000000000000000000000000000000000000000000008152600401611fd590613e26565b60405180910390fd5b611feb83838360016127b3565b8273ffffffffffffffffffffffffffffffffffffffff1661200b8261137d565b73ffffffffffffffffffffffffffffffffffffffff1614612061576040517f08c379a000000000000000000000000000000000000000000000000000000000815260040161205890613d94565b60405180910390fd5b6004600082815260200190815260200160002060006101000a81549073ffffffffffffffffffffffffffffffffffffffff02191690556001600360008573ffffffffffffffffffffffffffffffffffffffff1673ffffffffffffffffffffffffffffffffffffffff168152602001908152602001600020600082825403925050819055506001600360008473ffffffffffffffffffffffffffffffffffffffff1673ffffffffffffffffffffffffffffffffffffffff16815260200190815260200160002060008282540192505081905550816002600083815260200190815260200160002060006101000a81548173ffffffffffffffffffffffffffffffffffffffff021916908373ffffffffffffffffffffffffffffffffffffffff160217905550808273ffffffffffffffffffffffffffffffffffffffff168473ffffffffffffffffffffffffffffffffffffffff167fddf252ad1be2c89b69c2b068fc378daa952ba7f163c4a11628f55a4df523b3ef60405160405180910390a46121ed83838360016128d9565b505050565b6001816000016000828254019250508190555050565b600073ffffffffffffffffffffffffffffffffffffffff168273ffffffffffffffffffffffffffffffffffffffff1603612277576040517f08c379a000000000000000000000000000000000000000000000000000000000815260040161226e90613e92565b60405180910390fd5b61228081612772565b156122c0576040517f08c379a00000000000000000000000000000000000000000000000000000000081526004016122b790613efe565b60405180910390fd5b6122ce6000838360016127b3565b6122d781612772565b15612317576040517f08c379a000000000000000000000000000000000000000000000000000000000815260040161230e90613efe565b60405180910390fd5b6001600360008473ffffffffffffffffffffffffffffffffffffffff1673ffffffffffffffffffffffffffffffffffffffff16815260200190815260200160002060008282540192505081905550816002600083815260200190815260200160002060006101000a81548173ffffffffffffffffffffffffffffffffffffffff021916908373ffffffffffffffffffffffffffffffffffffffff160217905550808273ffffffffffffffffffffffffffffffffffffffff16600073ffffffffffffffffffffffffffffffffffffffff167fddf252ad1be2c89b69c2b068fc378daa952ba7f163c4a11628f55a4df523b3ef60405160405180910390a46124216000838360016128d9565b5050565b61242e82612772565b61246d576040517f08c379a000000000000000000000000000000000000000000000000000000000815260040161246490613f90565b60405180910390fd5b8060066000848152602001908152602001600020908161248d919061415c565b505050565b60006002600083815260200190815260200160002060009054906101000a900473ffffffffffffffffffffffffffffffffffffffff169050919050565b8173ffffffffffffffffffffffffffffffffffffffff168373ffffffffffffffffffffffffffffffffffffffff160361253d576040517f08c379a00000000000000000000000000000000000000000000000000000000081526004016125349061427a565b60405180910390fd5b80600560008573ffffffffffffffffffffffffffffffffffffffff1673ffffffffffffffffffffffffffffffffffffffff16815260200190815260200160002060008473ffffffffffffffffffffffffffffffffffffffff1673ffffffffffffffffffffffffffffffffffffffff16815260200190815260200160002060006101000a81548160ff0219169083151502179055508173ffffffffffffffffffffffffffffffffffffffff168373ffffffffffffffffffffffffffffffffffffffff167f17307eab39ab6107e8899845ad3d59bd9653f200f220920489ca2b5937696c318360405161262e9190612dbb565b60405180910390a3505050565b612646848484611ef9565b612652848484846128df565b612691576040517f08c379a00000000000000000000000000000000000000000000000000000000081526004016126889061430c565b60405180910390fd5b50505050565b606060405180602001604052806000815250905090565b60606126b982611d4a565b60006126c3612697565b905060008151116126e3576040518060200160405280600081525061270e565b806126ed84612a66565b6040516020016126fe929190613c00565b6040516020818303038152906040525b915050919050565b60008160000154905060008111612762576040517f08c379a000000000000000000000000000000000000000000000000000000000815260040161275990614378565b60405180910390fd5b6001810382600001819055505050565b60008073ffffffffffffffffffffffffffffffffffffffff1661279483612492565b73ffffffffffffffffffffffffffffffffffffffff1614159050919050565b60018111156128d357600073ffffffffffffffffffffffffffffffffffffffff168473ffffffffffffffffffffffffffffffffffffffff16146128475780600360008673ffffffffffffffffffffffffffffffffffffffff1673ffffffffffffffffffffffffffffffffffffffff168152602001908152602001600020600082825461283f91906137a6565b925050819055505b600073ffffffffffffffffffffffffffffffffffffffff168373ffffffffffffffffffffffffffffffffffffffff16146128d25780600360008573ffffffffffffffffffffffffffffffffffffffff1673ffffffffffffffffffffffffffffffffffffffff16815260200190815260200160002060008282546128ca91906137da565b925050819055505b5b50505050565b50505050565b60006129008473ffffffffffffffffffffffffffffffffffffffff16612b34565b15612a59578373ffffffffffffffffffffffffffffffffffffffff1663150b7a02612929611d95565b8786866040518563ffffffff1660e01b815260040161294b94939291906143ed565b6020604051808303816000875af192505050801561298757506040513d601f19601f82011682018060405250810190612984919061444e565b60015b612a09573d80600081146129b7576040519150601f19603f3d011682016040523d82523d6000602084013e6129bc565b606091505b506000815103612a01576040517f08c379a00000000000000000000000000000000000000000000000000000000081526004016129f89061430c565b60405180910390fd5b805181602001fd5b63150b7a0260e01b7bffffffffffffffffffffffffffffffffffffffffffffffffffffffff1916817bffffffffffffffffffffffffffffffffffffffffffffffffffffffff191614915050612a5e565b600190505b949350505050565b606060006001612a7584612b57565b01905060008167ffffffffffffffff811115612a9457612a936131c8565b5b6040519080825280601f01601f191660200182016040528015612ac65781602001600182028036833780820191505090505b509050600082602001820190505b600115612b29578080600190039150507f3031323334353637383961626364656600000000000000000000000000000000600a86061a8153600a8581612b1d57612b1c61447b565b5b04945060008503612ad4575b819350505050919050565b6000808273ffffffffffffffffffffffffffffffffffffffff163b119050919050565b600080600090507a184f03e93ff9f4daa797ed6e38ed64bf6a1f0100000000000000008310612bb5577a184f03e93ff9f4daa797ed6e38ed64bf6a1f0100000000000000008381612bab57612baa61447b565b5b0492506040810190505b6d04ee2d6d415b85acef81000000008310612bf2576d04ee2d6d415b85acef81000000008381612be857612be761447b565b5b0492506020810190505b662386f26fc100008310612c2157662386f26fc100008381612c1757612c1661447b565b5b0492506010810190505b6305f5e1008310612c4a576305f5e1008381612c4057612c3f61447b565b5b0492506008810190505b6127108310612c6f576127108381612c6557612c6461447b565b5b0492506004810190505b60648310612c925760648381612c8857612c8761447b565b5b0492506002810190505b600a8310612ca1576001810190505b80915050919050565b6040518060a001604052806000815260200160008152602001600073ffffffffffffffffffffffffffffffffffffffff168152602001600073ffffffffffffffffffffffffffffffffffffffff1681526020016000151581525090565b6000604051905090565b600080fd5b600080fd5b60007fffffffff0000000000000000000000000000000000000000000000000000000082169050919050565b612d5081612d1b565b8114612d5b57600080fd5b50565b600081359050612d6d81612d47565b92915050565b600060208284031215612d8957612d88612d11565b5b6000612d9784828501612d5e565b91505092915050565b60008115159050919050565b612db581612da0565b82525050565b6000602082019050612dd06000830184612dac565b92915050565b600081519050919050565b600082825260208201905092915050565b60005b83811015612e10578082015181840152602081019050612df5565b60008484015250505050565b6000601f19601f8301169050919050565b6000612e3882612dd6565b612e428185612de1565b9350612e52818560208601612df2565b612e5b81612e1c565b840191505092915050565b60006020820190508181036000830152612e808184612e2d565b905092915050565b6000819050919050565b612e9b81612e88565b8114612ea657600080fd5b50565b600081359050612eb881612e92565b92915050565b600060208284031215612ed457612ed3612d11565b5b6000612ee284828501612ea9565b91505092915050565b600073ffffffffffffffffffffffffffffffffffffffff82169050919050565b6000612f1682612eeb565b9050919050565b612f2681612f0b565b82525050565b6000602082019050612f416000830184612f1d565b92915050565b612f5081612f0b565b8114612f5b57600080fd5b50565b600081359050612f6d81612f47565b92915050565b60008060408385031215612f8a57612f89612d11565b5b6000612f9885828601612f5e565b9250506020612fa985828601612ea9565b9150509250929050565b600081519050919050565b600082825260208201905092915050565b6000819050602082019050919050565b612fe881612e88565b82525050565b6000612ff982612eeb565b9050919050565b61300981612fee565b82525050565b61301881612da0565b82525050565b60a0820160008201516130346000850182612fdf565b5060208201516130476020850182612fdf565b50604082015161305a6040850182613000565b50606082015161306d6060850182613000565b506080820151613080608085018261300f565b50505050565b6000613092838361301e565b60a08301905092915050565b6000602082019050919050565b60006130b682612fb3565b6130c08185612fbe565b93506130cb83612fcf565b8060005b838110156130fc5781516130e38882613086565b97506130ee8361309e565b9250506001810190506130cf565b5085935050505092915050565b6000602082019050818103600083015261312381846130ab565b905092915050565b60008060006060848603121561314457613143612d11565b5b600061315286828701612f5e565b935050602061316386828701612f5e565b925050604061317486828701612ea9565b9150509250925092565b6000806040838503121561319557613194612d11565b5b60006131a385828601612ea9565b92505060206131b485828601612ea9565b9150509250929050565b600080fd5b600080fd5b7f4e487b7100000000000000000000000000000000000000000000000000000000600052604160045260246000fd5b61320082612e1c565b810181811067ffffffffffffffff8211171561321f5761321e6131c8565b5b80604052505050565b6000613232612d07565b905061323e82826131f7565b919050565b600067ffffffffffffffff82111561325e5761325d6131c8565b5b61326782612e1c565b9050602081019050919050565b82818337600083830152505050565b600061329661329184613243565b613228565b9050828152602081018484840111156132b2576132b16131c3565b5b6132bd848285613274565b509392505050565b600082601f8301126132da576132d96131be565b5b81356132ea848260208601613283565b91505092915050565b6000806040838503121561330a57613309612d11565b5b600083013567ffffffffffffffff81111561332857613327612d16565b5b613334858286016132c5565b925050602061334585828601612ea9565b9150509250929050565b61335881612e88565b82525050565b6000602082019050613373600083018461334f565b92915050565b60006020828403121561338f5761338e612d11565b5b600061339d84828501612f5e565b91505092915050565b6133af81612fee565b82525050565b60006020820190506133ca60008301846133a6565b92915050565b6133d981612da0565b81146133e457600080fd5b50565b6000813590506133f6816133d0565b92915050565b6000806040838503121561341357613412612d11565b5b600061342185828601612f5e565b9250506020613432858286016133e7565b9150509250929050565b600067ffffffffffffffff821115613457576134566131c8565b5b61346082612e1c565b9050602081019050919050565b600061348061347b8461343c565b613228565b90508281526020810184848401111561349c5761349b6131c3565b5b6134a7848285613274565b509392505050565b600082601f8301126134c4576134c36131be565b5b81356134d484826020860161346d565b91505092915050565b600080600080608085870312156134f7576134f6612d11565b5b600061350587828801612f5e565b945050602061351687828801612f5e565b935050604061352787828801612ea9565b925050606085013567ffffffffffffffff81111561354857613547612d16565b5b613554878288016134af565b91505092959194509250565b600060a082019050613575600083018861334f565b613582602083018761334f565b61358f60408301866133a6565b61359c60608301856133a6565b6135a96080830184612dac565b9695505050505050565b600080604083850312156135ca576135c9612d11565b5b60006135d885828601612f5e565b92505060206135e985828601612f5e565b9150509250929050565b7f4e487b7100000000000000000000000000000000000000000000000000000000600052602260045260246000fd5b6000600282049050600182168061363a57607f821691505b60208210810361364d5761364c6135f3565b5b50919050565b7f4552433732313a20617070726f76616c20746f2063757272656e74206f776e6560008201527f7200000000000000000000000000000000000000000000000000000000000000602082015250565b60006136af602183612de1565b91506136ba82613653565b604082019050919050565b600060208201905081810360008301526136de816136a2565b9050919050565b7f4552433732313a20617070726f76652063616c6c6572206973206e6f7420746f60008201527f6b656e206f776e6572206f7220617070726f76656420666f7220616c6c000000602082015250565b6000613741603d83612de1565b915061374c826136e5565b604082019050919050565b6000602082019050818103600083015261377081613734565b9050919050565b7f4e487b7100000000000000000000000000000000000000000000000000000000600052601160045260246000fd5b60006137b182612e88565b91506137bc83612e88565b92508282039050818111156137d4576137d3613777565b5b92915050565b60006137e582612e88565b91506137f083612e88565b925082820190508082111561380857613807613777565b5b92915050565b7f4e487b7100000000000000000000000000000000000000000000000000000000600052603260045260246000fd5b600061384882612e88565b91507fffffffffffffffffffffffffffffffffffffffffffffffffffffffffffffffff820361387a57613879613777565b5b600182019050919050565b7f4552433732313a2063616c6c6572206973206e6f7420746f6b656e206f776e6560008201527f72206f7220617070726f76656400000000000000000000000000000000000000602082015250565b60006138e1602d83612de1565b91506138ec82613885565b604082019050919050565b60006020820190508181036000830152613910816138d4565b9050919050565b7f50726963652073686f756c642062652067726561746572207468616e20300000600082015250565b600061394d601e83612de1565b915061395882613917565b602082019050919050565b6000602082019050818103600083015261397c81613940565b9050919050565b7f596f75206d7573742070617920746865206c697374696e672070726963650000600082015250565b60006139b9601e83612de1565b91506139c482613983565b602082019050919050565b600060208201905081810360008301526139e8816139ac565b9050919050565b6000608082019050613a04600083018761334f565b613a116020830186612f1d565b613a1e6040830185612f1d565b613a2b6060830184612dac565b95945050505050565b7f4552433732313a20696e76616c696420746f6b656e2049440000000000000000600082015250565b6000613a6a601883612de1565b9150613a7582613a34565b602082019050919050565b60006020820190508181036000830152613a9981613a5d565b9050919050565b7f4552433732313a2061646472657373207a65726f206973206e6f74206120766160008201527f6c6964206f776e65720000000000000000000000000000000000000000000000602082015250565b6000613afc602983612de1565b9150613b0782613aa0565b604082019050919050565b60006020820190508181036000830152613b2b81613aef565b9050919050565b7f506c65617365207375626d6974207468652061736b696e67207072696365206960008201527f6e206f7264657220746f20636f6d706c65746520746865207075726368617365602082015250565b6000613b8e604083612de1565b9150613b9982613b32565b604082019050919050565b60006020820190508181036000830152613bbd81613b81565b9050919050565b600081905092915050565b6000613bda82612dd6565b613be48185613bc4565b9350613bf4818560208601612df2565b80840191505092915050565b6000613c0c8285613bcf565b9150613c188284613bcf565b91508190509392505050565b7f4f6e6c79206974656d206f776e65722063616e20706572666f726d207468697360008201527f206f7065726174696f6e00000000000000000000000000000000000000000000602082015250565b6000613c80602a83612de1565b9150613c8b82613c24565b604082019050919050565b60006020820190508181036000830152613caf81613c73565b9050919050565b7f4f776e6572207265717569726564000000000000000000000000000000000000600082015250565b6000613cec600e83612de1565b9150613cf782613cb6565b602082019050919050565b60006020820190508181036000830152613d1b81613cdf565b9050919050565b7f4552433732313a207472616e736665722066726f6d20696e636f72726563742060008201527f6f776e6572000000000000000000000000000000000000000000000000000000602082015250565b6000613d7e602583612de1565b9150613d8982613d22565b604082019050919050565b60006020820190508181036000830152613dad81613d71565b9050919050565b7f4552433732313a207472616e7366657220746f20746865207a65726f2061646460008201527f7265737300000000000000000000000000000000000000000000000000000000602082015250565b6000613e10602483612de1565b9150613e1b82613db4565b604082019050919050565b60006020820190508181036000830152613e3f81613e03565b9050919050565b7f4552433732313a206d696e7420746f20746865207a65726f2061646472657373600082015250565b6000613e7c602083612de1565b9150613e8782613e46565b602082019050919050565b60006020820190508181036000830152613eab81613e6f565b9050919050565b7f4552433732313a20746f6b656e20616c7265616479206d696e74656400000000600082015250565b6000613ee8601c83612de1565b9150613ef382613eb2565b602082019050919050565b60006020820190508181036000830152613f1781613edb565b9050919050565b7f45524337323155524953746f726167653a2055524920736574206f66206e6f6e60008201527f6578697374656e7420746f6b656e000000000000000000000000000000000000602082015250565b6000613f7a602e83612de1565b9150613f8582613f1e565b604082019050919050565b60006020820190508181036000830152613fa981613f6d565b9050919050565b60008190508160005260206000209050919050565b60006020601f8301049050919050565b600082821b905092915050565b6000600883026140127fffffffffffffffffffffffffffffffffffffffffffffffffffffffffffffffff82613fd5565b61401c8683613fd5565b95508019841693508086168417925050509392505050565b6000819050919050565b600061405961405461404f84612e88565b614034565b612e88565b9050919050565b6000819050919050565b6140738361403e565b61408761407f82614060565b848454613fe2565b825550505050565b600090565b61409c61408f565b6140a781848461406a565b505050565b5b818110156140cb576140c0600082614094565b6001810190506140ad565b5050565b601f821115614110576140e181613fb0565b6140ea84613fc5565b810160208510156140f9578190505b61410d61410585613fc5565b8301826140ac565b50505b505050565b600082821c905092915050565b600061413360001984600802614115565b1980831691505092915050565b600061414c8383614122565b9150826002028217905092915050565b61416582612dd6565b67ffffffffffffffff81111561417e5761417d6131c8565b5b6141888254613622565b6141938282856140cf565b600060209050601f8311600181146141c657600084156141b4578287015190505b6141be8582614140565b865550614226565b601f1984166141d486613fb0565b60005b828110156141fc578489015182556001820191506020850194506020810190506141d7565b868310156142195784890151614215601f891682614122565b8355505b6001600288020188555050505b505050505050565b7f4552433732313a20617070726f766520746f2063616c6c657200000000000000600082015250565b6000614264601983612de1565b915061426f8261422e565b602082019050919050565b6000602082019050818103600083015261429381614257565b9050919050565b7f4552433732313a207472616e7366657220746f206e6f6e20455243373231526560008201527f63656976657220696d706c656d656e7465720000000000000000000000000000602082015250565b60006142f6603283612de1565b91506143018261429a565b604082019050919050565b60006020820190508181036000830152614325816142e9565b9050919050565b7f436f756e7465723a2064656372656d656e74206f766572666c6f770000000000600082015250565b6000614362601b83612de1565b915061436d8261432c565b602082019050919050565b6000602082019050818103600083015261439181614355565b9050919050565b600081519050919050565b600082825260208201905092915050565b60006143bf82614398565b6143c981856143a3565b93506143d9818560208601612df2565b6143e281612e1c565b840191505092915050565b60006080820190506144026000830187612f1d565b61440f6020830186612f1d565b61441c604083018561334f565b818103606083015261442e81846143b4565b905095945050505050565b60008151905061444881612d47565b92915050565b60006020828403121561446457614463612d11565b5b600061447284828501614439565b91505092915050565b7f4e487b7100000000000000000000000000000000000000000000000000000000600052601260045260246000fdfea2646970667358221220598c3069004277f1bec6dc811acf43644a830cc16571dc36954952d9f218821764736f6c63430008110033",
  "linkReferences": {},
  "deployedLinkReferences": {}
}